:0300000002027089
:0C027000787FE4F6D8FD7581150202B716
:10036E0018301C1020401C10181020101C101840A3
:10037E001C2020201C20182020800013181C203048
:02038E004080AD
:070003000213006401150067
:03000B000203A24B
:0903A200758CD8758AEF1515322F
:10039000EF75F003A4FFAEF0EF1F70011E144E7056
:0103A000F765
:0103A1002239
:0303B000DFFE224B
:1001DA00E4F51275900FE590640F700302026F7FC9
:1001EA0005120390E590640F607B75900FAF90EF56
:1001FA0024F5601224FE601614601B2407701DE4A7
:10020A00F513F5148016751300751401800E751315
:10021A000075140280067513007514037590F0AF0B
:10022A0090EF2450601424E0601424F060142470C9
:10023A00701B8513138514148013740480067408C4
:10024A008002740C2514F514E43513F513C3E51272
:10025A00648094B2500FE59064F060097F05120340
:05026A0090051280E880
:01026F00226C
:10033C00EF24E8601B24FC601A24FC601924F06094
:10034C001824F0601724C06016246D7014C2A0220B
:10035C00C2A122C2A222C2A322C2A422C2A522C22C
:02036C00A622C7
:0E02FC00B295AF0812033CAF08120390AF0892
:10030A00EF24E8601B24FC601A24FC601924F060C6
:10031A001824F0601724C06016246D7014D2A0222D
:10032A00D2A122D2A222D2A322D2A422D2A522D2FE
:02033A00A622F9
:0F010400E4F50A758901758CD8758AEF75A882A4
:10011300780B7C007D007BFF7A0379897E007F0763
:100123001200DE1201DAC3E51364809480402BE5EC
:10013300149407E51364809480501F740B2514F8FE
:10014300E6F508751510D28CE51560051202FC80E2
:10015300F7C28C75130075146422E5146407451304
:1001630070AEAF0AEF3395E0FE746E2FF582740321
:100173003EF583E493F5097009F50A7FE81203B0AD
:10018300808EAF09EF3395E0FEEFF44E700B050A56
:100193007F641203B0C28C80C9AF0A050AEF33959E
:1001A300E0FE746E2FF58274033EF583E493F50845
:1001B300AF0A050AEF3395E0FE746E2FF5827403E0
:1001C3003EF583E493F515D28CE51560051202FC28
:0401D30080F7C28C63
:0301D7000201130F
:0503AB00C2A7020104DD
:10027C000203ABE493A3F8E493A34003F68001F2EA
:10028C0008DFF48029E493A3F85407240CC8C33383
:10029C00C4540F4420C8834004F456800146F6DF52
:1002AC00E4800B0102040810204080900003E47EDF
:1002BC00019360BCA3FF543F30E509541FFEE49347
:1002CC00A360010ECF54C025E060A840B8E493A30E
:1002DC00FAE493A3F8E493A3C8C582C8CAC583CA39
:1002EC00F0A3C8C582C8CAC583CADFE9DEE780BEF1
:01000A0000F5
:10000E00E709F608DFFA8046E709F208DFFA803ED4
:10001E0088828C83E709F0A3DFFA8032E309F608C1
:10002E00DFFA8078E309F208DFFA807088828C8329
:10003E00E309F0A3DFFA806489828A83E0A3F608DD
:10004E00DFFA805889828A83E0A3F208DFFA804CB7
:10005E0080D280FA80C680D4806980F2803380108E
:10006E0080A680EA809A80A880DA80E280CA8033F7
:10007E0089828A83ECFAE493A3C8C582C8CCC5836F
:10008E00CCF0A3C8C582C8CCC583CCDFE9DEE7803F
:10009E000D89828A83E493A3F608DFF9ECFAA9F0BE
:1000AE00EDFB2289828A83ECFAE0A3C8C582C8CC14
:1000BE00C583CCF0A3C8C582C8CCC583CCDFEADE2D
:1000CE00E880DB89828A83E493A3F208DFF980CC8F
:1000DE0088F0EF60010E4E60C388F0ED2402B40488
:1000EE000050B9F582EB2402B4040050AF2323452F
:0600FE00822390005E73F6
:00000001FF
